:100000000C945D000C9485000C9485000C94850084
:100010000C9485000C9485000C9485000C9485004C
:100020000C9485000C9485000C9485000C9485003C
:100030000C9485000C9485000C9485000C9485002C
:100040000C9472020C9485000C9440020C941A02D9
:100050000C9485000C9485000C9485000C9485000C
:100060000C9485000C9485000000000024002700FB
:100070002A0000000000250028002B0004040404CE
:100080000404040402020202020203030303030342
:10009000010204081020408001020408102001021F
:1000A00004081020000000080002010000030407FB
:1000B0000000000000000000BC0211241FBECFEFB2
:1000C000D8E0DEBFCDBF12E0A0E0B1E0E8E5FFE0A0
:1000D00002C005900D92A43DB107D9F723E0A4ED2D
:1000E000B2E001C01D92AE3DB207E1F710E0CDE5F0
:1000F000D0E004C02197FE010E94BA04CC35D1079C
:10010000C9F70E94E9020C94AA070C940000CF9250
:10011000DF92EF92FF920F931F93CF93DF936C01C7
:100120007A018B01C0E0D0E0CE15DF0589F0D8015F
:100130006D918D01D601ED91FC910190F081E02D42
:10014000C6010995892B11F47E0102C02196ECCFDE
:10015000C701DF91CF911F910F91FF90EF90DF903A
:10016000CF900895FC01918D828D981761F0828D5A
:10017000DF01A80FB11D5D968C91928D9F5F9F73DB
:10018000928F90E008958FEF9FEF0895FC01918D7D
:10019000828D981731F0828DE80FF11D858D90E0EA
:1001A00008958FEF9FEF0895FC01918D228D892F87
:1001B00090E0805C9F4F821B91098F73992708956F
:1001C00081E493E00E94D40021E0892B09F420E02F
:1001D000822F0895FC01848DDF01A80FB11DA35A61
:1001E000BF4F2C91848D90E001968F739927848F57
:1001F000A689B7892C93A089B1898C9180648C934E
:10020000938D848D981306C00288F389E02D808138
:100210008F7D80830895EF92FF920F931F93CF936A
:10022000DF93EC0181E0888F9B8D8C8D981305C046
:10023000E889F989808185FD24C0F62E0B8D10E0B8
:100240000F5F1F4F0F731127E02E8C8DE8120CC02B
:100250000FB607FCFACFE889F989808185FFF5CFD1
:10026000CE010E94EA00F1CF8B8DFE01E80FF11D57
:10027000E35AFF4FF0820B8FEA89FB89808180620D
:1002800007C0EE89FF896083E889F98980818064ED
:10029000808381E090E0DF91CF911F910F91FF90DB
:1002A000EF900895CF93DF93EC01888D8823C9F0F8
:1002B000EA89FB89808185FD05C0A889B9898C916F
:1002C00086FD0FC00FB607FCF5CF808185FFF2CF0A
:1002D000A889B9898C9185FFEDCFCE010E94EA00F3
:1002E000E7CFDF91CF91089580E090E0892B29F04E
:1002F0000E94E00081110C94000008953FB7F8942B
:1003000080913D0390913E03A0913F03B091400343
:1003100026B5A89B05C02F3F19F00196A11DB11D60
:100320003FBFBA2FA92F982F8827820F911DA11D9B
:10033000B11DBC01CD0142E0660F771F881F991FD8
:100340004A95D1F708958F929F92AF92BF92CF9224
:10035000DF92EF92FF926B017C010E947E014B01C4
:100360005C0184E0C81AD108E108F108C80CD91C66
:10037000EA1CFB1CC814D904EA04FB0438F40E94EC
:100380007E0186169706A806B906C8F30E947E016C
:100390006C157D058E059F05C8F3FF90EF90DF90EB
:1003A000CF90BF90AF909F908F9008958F929F9223
:1003B000AF92BF92CF92DF92EF92FF926B017C01DE
:1003C0000E947E014B015C01C114D104E104F104DF
:1003D000F1F00E947E01DC01CB0188199909AA097C
:1003E000BB09883E9340A105B10570F321E0C21A14
:1003F000D108E108F10888EE880E83E0981EA11C60
:10040000B11CC114D104E104F10419F7DDCFFF9050
:10041000EF90DF90CF90BF90AF909F908F90089516
:1004200042E050E063E971E081E493E00C948700DE
:100430000E94C0041F920F920FB60F9211242F93A7
:100440003F934F935F936F937F938F939F93AF935C
:10045000BF93EF93FF9381E493E00E94EA00FF9142
:10046000EF91BF91AF919F918F917F916F915F912C
:100470004F913F912F910F900FBE0F901F901895A5
:100480001F920F920FB60F9211242F938F939F9369
:10049000EF93FF93E0915103F09152038081E0913B
:1004A0005703F091580382FD12C0908180915A0346
:1004B0008F5F8F7320915B03821751F0E0915A0395
:1004C000F0E0EF5BFC4F958F80935A0301C0808171
:1004D000FF91EF919F918F912F910F900FBE0F90F1
:1004E0001F9018951F920F920FB60F9211242F9301
:1004F0003F938F939F93AF93BF93809139039091D4
:100500003A03A0913B03B0913C033091380323E0C0
:10051000230F2D3720F40196A11DB11D05C026E83B
:10052000230F0296A11DB11D209338038093390338
:1005300090933A03A0933B03B0933C0380913D0317
:1005400090913E03A0913F03B09140030196A11DFD
:10055000B11D80933D0390933E03A0933F03B0935E
:100560004003BF91AF919F918F913F912F910F9039
:100570000FBE0F901F901895E1E4F3E013821282F2
:1005800088EE93E0A0E0B0E084839583A683B783F0
:1005900087E891E09183808385EC90E0958784875C
:1005A00084EC90E09787868780EC90E0918B808B3D
:1005B00081EC90E0938B828B82EC90E0958B848B26
:1005C00086EC90E0978B868B118E128E138E148E94
:1005D0000895789484B5826084BD84B5816084BDBB
:1005E00085B5826085BD85B5816085BD80916E00D1
:1005F000816080936E001092810080918100826002
:10060000809381008091810081608093810080913E
:1006100080008160809380008091B100846080932D
:10062000B1008091B00081608093B00080917A0029
:10063000846080937A0080917A00826080937A004F
:1006400080917A00816080937A0080917A0080683E
:1006500080937A001092C100E0915103F09152030F
:1006600082E08083E0914D03F0914E031082E0918F
:100670004F03F09150038FEC808310925903E09167
:100680005503F091560386E08083E0915303F09187
:100690005403808180618083E0915303F09154037F
:1006A000808188608083E0915303F09154038081BE
:1006B00080688083E0915303F091540380818F7DA3
:1006C000808368E873E180E090E00E94D6014CE20C
:1006D00050E060E071E081E493E00E9487000E94B6
:1006E00010020E94100268E873E180E090E00E942E
:1006F000D60193E5A92E92E0B92E04ED12E021E98E
:10070000C22E22E0D22E3CE0232E32E0332E4AECE1
:10071000442E41E0542EE12CF12CC3E6D0E0B3E9A5
:100720006B2EB0E07B2E8FE7882E80E0982E2097EE
:1007300009F447C0DF93CF93DF93CF93A6E9B1E0ED
:10074000BF93AF931F92F3E3FF931F930F930E9406
:10075000C5048DB79EB70A960FB6F8949EBF0FBE1C
:100760008DBFC130D105C1F0CE0101979F938F930A
:10077000DF93CF935F924F921F9281E48F931F93E9
:100780000F930E94C504EDB7FEB73A960FB6F894E2
:10079000FEBF0FBEEDBF2FC01F9281E08F933F922F
:1007A0002F921F9286E48F931F930F930E94C5048C
:1007B0008DB79EB708960FB6F8949EBF0FBE8DBF3B
:1007C0001AC0BF92AF921F929DE39F931F930F9306
:1007D0000E94C504DF92CF921F92A2E4AF931F93B1
:1007E0000F930E94C504EDB7FEB73C960FB6F89480
:1007F000FEBF0FBEEDBFF701EE0FFF1FE35DFE4F23
:10080000208131812130310509F4A8C0F701E05081
:10081000FF4F4081042E000C550BC7016EE370E0C2
:1008200061507109E9F7FFEFEF1AFF0AEE27FF2782
:10083000EE19FF09281B390B2150310980E090E0A7
:10084000019621153105F9F4C097482759271092D0
:100850007000F3016491F40124912223E9F030E067
:10086000220F331FF901E859FF4FA591B491F90107
:10087000EE58FF4F859194918FB7F8949C91692B16
:100880006C938FBF09C02E0F3F1FB9016E0D7F1DE6
:100890006E157F05ACF6D8CFE7EAF0E09491F3014E
:1008A0008491F40124912223C1F1992339F19330E9
:1008B00091F038F49130A9F0923001F594B59F7D14
:1008C00012C0973091F09830A1F09430B9F4909123
:1008D00080009F7D03C0909180009F77909380005F
:1008E0000DC094B59F7794BD09C09091B0009F77DB
:1008F00003C09091B0009F7D9093B000E22FF0E094
:10090000EE0FFF1FEE58FF4FA591B4919FB7F894DB
:100910002C91809582238C939FBF81E08093B000BF
:1009200089E08093B10086EA8093B30087E38093E7
:10093000B4008091B00080628093B00041155105F1
:1009400041F0BA0180E090E04530510510F00E947E
:10095000A3018091B0008F7D8093B00060ED77E0BF
:1009600080E090E00E94D601219708F0E0CE0E943E
:100970007401D1CEEE0FFF1F0590F491E02D099484
:1009800081E090E0F8940C94AA07AEE0B0E0EBECC4
:10099000F4E00C9481070D891E898F89988D26E0DB
:1009A0002C831A83098397FF02C080E090E80197A7
:1009B0009E838D83AE01455E5F4F698D7A8DCE013A
:1009C00001960E94F5044D815E8157FD0AC02F817A
:1009D0003885421753070CF49A01F801E20FF31F10
:1009E00010822E96E4E00C949D07ACE0B0E0EBEFB3
:1009F000F4E00C9473077C016B018A01FC011782FF
:100A00001682838181FFBDC1CE0101964C01F701A1
:100A10009381F60193FD859193FF81916F01882366
:100A200009F4ABC1853239F493FD859193FF81912F
:100A30006F01853229F4B70190E00E94DD06E7CF0F
:100A4000512C312C20E02032A0F48B3269F030F4AC
:100A5000803259F0833269F420612CC08D3239F034
:100A6000803339F4216026C02260246023C02860CE
:100A700021C027FD27C030ED380F3A3078F426FF2B
:100A800006C0FAE05F9E300D1124532E13C08AE099
:100A9000389E300D1124332E20620CC08E3221F48A
:100AA00026FD6BC1206406C08C3611F4206802C09C
:100AB000883641F4F60193FD859193FF81916F0192
:100AC0008111C1CF982F9F7D9554933028F40C5FEE
:100AD0001F4FFFE3F9830DC0833631F0833771F088
:100AE000833509F05BC022C0F801808189830E5FE5
:100AF0001F4F44244394512C540115C03801F2E097
:100B00006F0E711CF801A080B18026FF03C0652D17
:100B100070E002C06FEF7FEFC5012C870E94D20604
:100B20002C0183012C852F77222E17C03801F2E08B
:100B30006F0E711CF801A080B18026FF03C0652DE7
:100B400070E002C06FEF7FEFC5012C870E94C706DF
:100B50002C012C852068222E830123FC1BC0832DB1
:100B600090E048165906B0F4B70180E290E00E9488
:100B7000DD063A94F4CFF50127FC859127FE81919B
:100B80005F01B70190E00E94DD0631103A94F1E078
:100B90004F1A51084114510471F7E5C0843611F021
:100BA000893639F5F80127FF07C06081718182819C
:100BB00093810C5F1F4F08C060817181072E000C6C
:100BC000880B990B0E5F1F4F2F76722E97FF09C06F
:100BD00090958095709561957F4F8F4F9F4F2068BE
:100BE000722E2AE030E0A4010E941507A82EA81852
:100BF00044C0853729F42F7EB22E2AE030E025C08C
:100C0000F22FF97FBF2E8F36C1F018F4883579F0B6
:100C1000B4C0803719F0883721F0AFC02F2F206182
:100C2000B22EB4FE0DC08B2D8460B82E09C024FFF7
:100C30000AC09F2F9660B92E06C028E030E005C09C
:100C400020E130E002C020E132E0F801B7FE07C049
:100C500060817181828193810C5F1F4F06C060812A
:100C6000718180E090E00E5F1F4FA4010E94150784
:100C7000A82EA818FB2DFF777F2E76FE0BC0372DF0
:100C80003E7FA51450F474FE0AC072FC08C0372DD4
:100C90003E7E05C0BA2C372D03C0BA2C01C0B52C3E
:100CA00034FF0DC0FE01EA0DF11D8081803311F487
:100CB000397E09C032FF06C0B394B39404C0832FB9
:100CC000867809F0B39433FD13C030FF06C05A2C68
:100CD000B31418F4530C5B18B32CB31468F4B701B5
:100CE00080E290E03C870E94DD06B3943C85F5CF1E
:100CF000B31410F43B1801C0312C34FF12C0B701FB
:100D000080E390E03C870E94DD063C8532FF17C0FF
:100D100031FD03C088E790E002C088E590E0B701AC
:100D20000CC0832F867859F031FF02C08BE201C0DE
:100D300080E237FD8DE2B70190E00E94DD06A51448
:100D400038F4B70180E390E00E94DD065A94F7CFB3
:100D5000AA94F401EA0DF11D8081B70190E00E9490
:100D6000DD06A110F5CF332009F451CEB70180E2A2
:100D700090E00E94DD063A94F6CFF70186819781D4
:100D800002C08FEF9FEF2C96E2E10C948F07FC01DD
:100D90000590615070400110D8F7809590958E0FA6
:100DA0009F1F0895FC016150704001900110D8F719
:100DB000809590958E0F9F1F08950F931F93CF934B
:100DC000DF93FB01238121FD03C08FEF9FEF28C03C
:100DD00022FF16C04681578124813581421753076F
:100DE00044F4A081B1819D012F5F3F4F3183208367
:100DF0008C93268137812F5F3F4F3783268310C026
:100E0000EB01092F182F0084F185E02D0995892B1E
:100E1000E1F68E819F8101969F838E83812F902F93
:100E2000DF91CF911F910F910895FA01AA272830E1
:100E300051F1203181F1E8946F936E7F6E5F7F4FA7
:100E40008F4F9F4FAF4FB1E03ED0B4E03CD0670F23
:100E5000781F891F9A1FA11D680F791F8A1F911D76
:100E6000A11D6A0F711D811D911DA11D20D009F4C6
:100E700068943F912AE0269F11243019305D319308
:100E8000DEF6CF010895462F4770405D4193B3E0F1
:100E90000FD0C9F7F6CF462F4F70405D4A3318F098
:100EA000495D31FD4052419302D0A9F7EACFB4E049
:100EB000A6959795879577956795BA95C9F7009701
:100EC0006105710508959B01AC010A2E06945795A2
:100ED000479537952795BA95C9F7620F731F841FF9
:100EE000951FA01D08952F923F924F925F926F928F
:100EF0007F928F929F92AF92BF92CF92DF92EF92AA
:100F0000FF920F931F93CF93DF93CDB7DEB7CA1B2A
:100F1000DB0B0FB6F894DEBF0FBECDBF09942A8855
:100F2000398848885F846E847D848C849B84AA84FD
:100F3000B984C884DF80EE80FD800C811B81AA818A
:100F4000B981CE0FD11D0FB6F894DEBF0FBECDBF55
:080F5000ED010895F894FFCFB4
:100F5800546F2062656572206F72206E6F74207402
:100F68006F20626565722C20746861742069732033
:100F7800746865207175657374696F6E00620066C8
:100F8800005301D40086018C0106021802B5026ADA
:100F9800048507D0021C0782069E07B005EB038074
:100FA800049309000AB208D805EB060006FB04768C
:100FB8000A70081808240DF40B720960088A09AE33
:100FC8000D6207E0108407220B77078011A6082816
:100FD8000B0100000000000B018700D400B200C61E
:100FE8000052010D0A00256420626F74746C6573E9
:100FF800206F662062656572206F6E2074686520B8
:1010080077616C6C2C20256420626F74746C657336
:10101800206F6620626565722E0054616B65206FD3
:101028006E6520646F776E20616E642070617373E3
:101038002069742061726F756E642C2025642062AB
:101048006F74746C6573206F662062656572206FBB
:101058006E207468652077616C6C2E0054616B6536
:10106800206F6E6520646F776E20616E64207061FA
:1010780073732069742061726F756E642C206E6FB3
:10108800206D6F726520626F74746C6573206F6673
:101098002062656572206F6E207468652077616CC8
:1010A8006C2E004E6F206D6F726520626F74746CC9
:1010B8006573206F662062656572206F6E207468A4
:1010C800652077616C6C2C206E6F206D6F726520C7
:1010D800626F74746C6573206F6620626565722E2A
:1010E80000476F20746F207468652073746F726591
:1010F80020616E642062757920736F6D65206D6F55
:1011080072652C20393920626F74746C6573206F96
:10111800662062656572206F6E207468652077614D
:041128006C6C2E00BD
:00000001FF
